:020000040000FA
:10000000E00600200502000037020000E9010000C0
:100010003B0200003D0200003F0200000000000023
:10002000000000000000000000000000410200008D
:10003000430200000000000045020000A51000007F
:100040004902000049020000490200004902000084
:100050004902000049020000490200004902000074
:100060004902000049020000490200004902000064
:100070004902000049020000490200004902000054
:100080004902000049020000490200004902000044
:100090004902000049020000490200004902000034
:1000A0004902000049020000490200004902000024
:1000B0004902000049020000490200004902000014
:1000C0004902000049020000490200004902000004
:1000D0002911000049020000490200004902000005
:1000E00049020000490200004902000049020000E4
:1000F00049020000490200004902000049020000D4
:1001000049020000490200004902000049020000C3
:1001100049020000490200004902000049020000B3
:1001200049020000490200004902000049020000A3
:100130004902000049020000490200004902000093
:1001400000F002F800F041F80AA090E8000C8244A8
:100150008344AAF10107DA4501D100F036F8AFF285
:10016000090EBAE80F0013F0010F18BFFB1A43F095
:10017000010318474014000060140000103A24BF27
:1001800078C878C1FAD8520724BF30C830C144BFFC
:1001900004680C607047000000230024002500263E
:1001A000103A28BF78C1FBD8520728BF30C148BFDA
:1001B0000B607047782900F06B80002070471FB5F6
:1001C00001F0D6F91FBD10B510BD00F011FA1146AF
:1001D000FFF7F5FF01F078F800F02FFA03B4FFF70E
:1001E000F2FF03BC00F036FA04207146084202D048
:1001F000EFF3098001E0EFF308807146004A1047F1
:10020000B508000014484FF0590101604FF0160185
:1002100001604FF088010160104A45F6A521116088
:100220000F4A116821F480511160002101600D48CE
:1002300080470D480047FEE7FEE7FEE7FEE7FEE7E2
:10024000FEE7FEE7FEE7FEE7FEE700000748084995
:10025000064A084B7047000000010040240000409F
:1002600000020040B510000041010000E002002043
:10027000E0060020E00200200FB4044910B503AAF4
:10028000029800F059F910BC5DF814FB380000200A
:1002900070B504460D4621461068AFF300802188F2
:1002A000090502D50F4A7A4402E00E4A7A440E321A
:1002B000002104F1240305E000F00F060009965D1B
:1002C0005E54491C0028F7D120780023000704D58C
:1002D000702D02D009B1022311322046BDE87040D2
:1002E00000F0D1B8E21200002DE9F0474FF0000A0B
:1002F00089460446C0F820A02046E16888470028C7
:1003000076D0252806D0D4E901219047206A401CE8
:100310002062F1E7E168204600258847C4F81CA068
:1003200006460027C4F818A02A2E09D0304600F04F
:100330008DFF38B304EB8708303EC8F8186019E029
:1003400059F8041B204604EB87029161E168884755
:10035000012F064618D1E069002820DA25F0200593
:100360001DE0D8F8180000EB800006EB40003038A4
:10037000C8F818002046E1688847064600F066FF86
:100380000028EED1012F0AD02E2E08D12046E16898
:1003900088477F1C0646022F45F02005C4DBA06974
:1003A000002803DA404245F00105A061E80701D0CA
:1003B00025F01005B6B1A6F14100192802D8203663
:1003C00045F400654A463146204625604D46FFF714
:1003D000F1FE58B1012806D0ED1D25F0070000F10F
:1003E000080989E704E005F1040985E730468AE752
:1003F000206ABDE8F087032A40F2308010F0030C39
:1004000000F0158011F8013BBCF1020F624498BF67
:1004100011F801CB00F8013B38BF11F8013BA2F104
:10042000040298BF00F801CB38BF00F8013B11F07F
:10043000030300F09380083AC0F0088051F8043BB1
:10044000083A51F804CBA0E80810F5E7121D5CBF8C
:1004500051F8043B40F8043BAFF30080D20724BFBF
:1004600011F8013B11F801CB48BF11F8012B24BF53
:1004700000F8013B00F801CB48BF00F8012B7047A2
:100480007047704770472DE9F0470D4699469246F0
:10049000044600F124080168880604D5E06921F0CB
:1004A0001001216000E00120A84201DD471B00E0AF
:1004B0000027A1697A1902EB0900081AA0612078C7
:1004C000C00602D42046AFF30080002608E0D4E93D
:1004D00001211AF806009047206A401C761C206211
:1004E0004E45F4DB2078C0060AD52046AFF30080E5
:1004F00006E0D4E9012130209047206A401C2062A8
:10050000381EA7F10107F4DC07E0D4E9012118F84F
:1005100005009047206A401C2062281EA5F10105B5
:10052000F3DC2046AFF300802078000602D50220DD
:10053000BDE8F0870120FBE7074B70B50D467B4413
:1005400000F043F80446284600F087FE10B14FF053
:10055000FF3070BD204670BD210D000010B5203A5F
:10056000C0F00B80B1E81850203AA0E81850B1E86C
:100570001850A0E81850BFF4F5AF5FEA027C24BF22
:10058000B1E81850A0E8185044BF18C918C0BDE819
:1005900010405FEA827C24BF51F8043B40F8043BE2
:1005A00008BF7047D20728BF31F8023B48BF11F897
:1005B000012B28BF20F8023B48BF00F8012B7047F1
:1005C00001694A1C02610878704700B58FB0CDE917
:1005D00001310021059105497944CDE90310114607
:1005E0006846FFF781FE0FB000BD0000E5FFFFFF8A
:1005F000754600F02BF8AE4605006946534620F0DC
:100600000700854618B020B5FFF720FEBDE8204062
:100610004FF000064FF000074FF000084FF0000BBE
:1006200021F00701AC46ACE8C009ACE8C009ACE871
:10063000C009ACE8C0098D46704710B50446AFF359
:1006400000802046BDE81040FFF7C8BD0048704755
:100650007C02002001491820ABBEFEE72600020004
:1006600070472DE9FF4104460D461646002715E068
:10067000102229466846FFF7BEFE2146284600F0B4
:100680002FF904F1B001284600F0D3FD102269468D
:1006900004F1B000FFF7AFFE10351037B742E7D3D3
:1006A000BDE8FF8110B5ADF5806D0021012009E0A6
:1006B0004DF82100C20940F21B135A4382EA40025E
:1006C0005040491CFF29F3D96322134B1A700021B3
:1006D00014E0C1F1FF025DF8220040EA00200209A7
:1006E00082EA501282EA901282EAD012504080F0E0
:1006F00063025DF82130084CE254491CFF29E8D31D
:10070000002104E0044B5B5C044CE154491CFF29CC
:10071000F8D90DF5806D10BD7C0000207C01002013
:1007200070B504460D46FFF7BDFF2946204600F090
:1007300083FB70BD70B504460B46002013E000211A
:100740000DE0250105EB80050D44555D03EB8006AA
:10075000765C754003EB800675544D1CE9B20429A4
:10076000EFDB451CE8B20428E9DB70BD70B5054637
:100770000E462C4604E0204600F006F804F500641E
:10078000B442F8D370BD000002462220084BD86066
:1007900018464260012018611846016801F04000C7
:1007A00020B1184601604FF0FF3070470020FCE791
:1007B00000C0004010B5024600200B4CE06020460F
:1007C00042600020A060012020612046036803F001
:1007D000400020B1204603604FF0FF3010BD0248BA
:1007E000806808600020F9E700C0004010B50246AC
:1007F0002120094CE0602046426081600120206198
:100800002046036803F0400020B1204603604FF00B
:10081000FF3010BD0020FCE700C0004030B585B0BF
:1008200000240B4B0FCB8DE80F000CE05DF824008B
:1008300004A9FFF7BFFF0546002D03DA5DF8240089
:1008400005B030BD641C042CF0D100BFFEE70000F1
:100850007C15000038B505460C460020206069462E
:100860004FF44010FFF7A6FF009800F00100B8B960
:1008700069460E48FFF79EFF0D49009809688842B7
:1008800003D80098C0F30A0010B10948006800902E
:1008900000982860064800680099401A206004E02B
:1008A0000348006828600020206038BD0400300044
:1008B0002C000020044604A0FFF7DEFC204600F0D8
:1008C000D5FD00BFFEE70000496E2048617264203C
:1008D0004661756C742048616E646C65720A000034
:1008E00070B505460E460024324629460A20FFF719
:1008F00021FF09240FE0284600F06BFA284600F09B
:1009000081FA324629462046FFF714FF284600F0B8
:1009100010F8601EC4B2002CEDDC284600F059FA35
:10092000284600F06FFA324629460020FFF702FF02
:1009300070BD31B588B00020079044E2DDE90710B2
:1009400010F821000690DDE9071000EB81004078E7
:100950000590DDE9071000EB810080780490DDE967
:10096000071000EB8100C0780390069800F0F6FDB8
:100970000446069800F0F2FD029000F0EFFD4440BE
:10098000069800F0EBFD019000F0E8FD029000F009
:10099000E5FD4440069800F0E1FD009000F0DEFD2A
:1009A000019000F0DBFD029000F0D8FD059800F00A
:1009B000D5FD05460598454000F0D0FD029000F0B9
:1009C000CDFD059800F0CAFD019000F0C7FD029032
:1009D00000F0C4FD4540059800F0C0FD009000F017
:1009E000BDFD019000F0BAFD029000F0B7FD6C4033
:1009F000049800F0B3FD0498054600F0AFFD0290A6
:100A000000F0ACFD4540049800F0A8FD019000F016
:100A1000A5FD029000F0A2FD4540049800F09EFD67
:100A2000009000F09BFD019000F098FD029000F016
:100A300095FD6C40039800F091FD0398054600F089
:100A40008DFD029000F08AFD039800F087FD019073
:100A500000F084FD029000F081FD4540039800F015
:100A60007DFD009000F07AFD019000F077FD02908E
:100A700000F074FD6C40DDE9071000F82140069895
:100A800000F06CFD0698044600F068FD029000F04E
:100A900065FD069800F062FD019000F05FFD029098
:100AA00000F05CFD4440069800F058FD009000F016
:100AB00055FD019000F052FD029000F04FFD0598A9
:100AC00000F04CFD0546059800F048FD029000F04E
:100AD00045FD4540059800F041FD019000F03EFDC8
:100AE000029000F03BFD4540059800F037FD009076
:100AF00000F034FD019000F031FD029000F02EFD79
:100B00006C40049800F02AFD05460498454000F02A
:100B100025FD029000F022FD049800F01FFD0190D9
:100B200000F01CFD029000F019FD4540049800F013
:100B300015FD009000F012FD019000F00FFD0290F5
:100B400000F00CFD6C40039800F008FD039805468A
:100B500000F004FD029000F001FD4540039800F014
:100B6000FDFC019000F0FAFC029000F0F7FC45401B
:100B7000039800F0F3FC009000F0F0FC019000F00E
:100B8000EDFC029000F0EAFC6C40DDE9071000EBA0
:100B900081004470069800F0E1FC0698044600F0DD
:100BA000DDFC029000F0DAFC4440069800F0D6FC30
:100BB000019000F0D3FC029000F0D0FC4440069875
:100BC00000F0CCFC009000F0C9FC019000F0C6FCE5
:100BD000029000F0C3FC059800F0C0FC05980546A3
:100BE00000F0BCFC029000F0B9FC059800F0B6FCE7
:100BF000019000F0B3FC029000F0B0FC4540059875
:100C000000F0ACFC009000F0A9FC019000F0A6FC04
:100C1000029000F0A3FC6C40049800F09FFC054695
:100C2000049800F09BFC029000F098FC454004986A
:100C300000F094FC019000F091FC029000F08EFC1A
:100C40004540049800F08AFC009000F087FC019079
:100C500000F084FC029000F081FC6C40039800F0EE
:100C60007DFC05460398454000F078FC029000F0BA
:100C700075FC039800F072FC019000F06FFC02908C
:100C800000F06CFC4540039800F068FC009000F018
:100C900065FC019000F062FC029000F05FFC6C408B
:100CA000DDE9071000EB81008470069800F056FC27
:100CB00004460698444000F051FC029000F04EFCBF
:100CC000069800F04BFC019000F048FC029000F008
:100CD00045FC4440069800F041FC009000F03EFCCA
:100CE000019000F03BFC029000F038FC059800F009
:100CF00035FC0598054600F031FC029000F02EFC12
:100D00004540059800F02AFC019000F027FC029075
:100D100000F024FC4540059800F020FC009000F015
:100D20001DFC019000F01AFC029000F017FC6C40D2
:100D3000049800F013FC0498054600F00FFC0290A4
:100D400000F00CFC049800F009FC019000F006FC97
:100D5000029000F003FC4540049800F0FFFB009077
:100D600000F0FCFB019000F0F9FB029000F0F6FBB4
:100D70006C40039800F0F2FB0546039800F0EEFB90
:100D8000029000F0EBFB4540039800F0E7FB019078
:100D900000F0E4FB029000F0E1FB4540039800F016
:100DA000DDFB009000F0DAFB019000F0D7FB029031
:100DB00000F0D4FB6C40DDE9071000EB8100C4704B
:100DC0000798401C079007980428FFF6B7AD09B0B4
:100DD00030BD417B437A4373437943724378437117
:100DE00041708178827A827081728179837B83718C
:100DF0008173C178C279C270C37AC371C37BC37275
:100E0000C173704710B5024600200FE0002109E0D1
:100E100002EB81031B5C074CE35C02EB810423546F
:100E20004B1CD9B20429F3DB431CD8B20428EDDBF8
:100E300010BD00007C01002078B502460C46002061
:100E400020E0002505EB8005655D002606EB8006A9
:100E50009555012505EB8005655D012606EB8006AD
:100E60009555022505EB8005655D022606EB80069B
:100E70009555032505EB8005655D032606EB800689
:100E80009555401C0428DCD304205FE0451EA900D2
:100E9000555C8DF800504D1C555D8DF801508D1C32
:100EA000555D8DF80250CD1C555D8DF8035000F056
:100EB00003056DBB9DF800109DF801508DF80050A2
:100EC0009DF802508DF801509DF803508DF80250A6
:100ED0008DF803109DF800501E4E755D8DF8005082
:100EE0009DF80150755D8DF801509DF80250755DBB
:100EF0008DF802509DF80350755D8DF803509DF8F4
:100F00000050154E06EB9006367875408DF800506F
:100F10008300051FA900555C9DF800607540D554FD
:100F20004D1C555D9DF8016075405E1C95558D1CEE
:100F3000555D9DF8026075409E1C9555CD1C555D14
:100F40009DF803607540DE1C9555401C2C289DD3F0
:100F500078BD00007C000020180000203C4800689C
:100F600040F005004FF08041C1F8000200BF384852
:100F70005030006800F010000028F8D034481030DD
:100F8000006820F00700C01D4FF08041C1F810023A
:100F90000846D0F8200220F00F00C1F820022C48AB
:100FA00020300068C1F820020846D0F8400240F422
:100FB00080302749403108602648086000BF244837
:100FC0005030006800F004000028F8D020481030AD
:100FD000006820F00700801C4FF08041C1F810022B
:100FE0001D481E4908601E49086047201D490860C9
:100FF0004FF08040D0F8080240F480304FF080413C
:10100000C1F808020846D0F8140220F04070C1F878
:1010100014020846D0F8140240F04070C1F81402DF
:101020000846D0F8200220F47060C1F82002084879
:1010300020300068C1F820020846806C20F0FF00D4
:1010400088640846806C40F0330088647047000074
:101050000002004032C4080050E04804480000206C
:10106000400000204400002000B50346184600F070
:1010700001F800BD00BF0A49896901F40001002997
:10108000F9D1074908600A2809D100BF04498969D4
:1010900001F400010029F9D10D21014A11607047C6
:1010A0000000074002480068401C01490860704782
:1010B0001400002000BF00BF00BF5920174908607E
:1010C00016208905C1F800018820C1F80001C0067A
:1010D000D0F800010028F0D000BF0846006840F6B4
:1010E0004511B1EB103F05D18807406940F0800001
:1010F000890748610A48006820F480504FF0804119
:10110000C1F8000200BF00200449086000BF054884
:10111000006840F470000349086070470001004017
:101120000002004088ED00E010B51549C86900F0E4
:10113000110199B109E0124A1268D3B2114A11782B
:101140004A1C104C2270104A53540D49896901F40D
:10115000804119B90B4909781029ECDB0949097854
:10116000102906D10121094A11700021054A117088
:1011700005E000F0100111B10021024A117010BD0C
:1011800000000740000000206C000020010000204B
:101190004FF08040C06840F480304FF08041C8601C
:1011A0000846C06820F48030C86018481849486272
:1011B0000320C8600846806820F4702040F4403066
:1011C00088600846806820F0F00040F030008860B9
:1011D0000846406840F0110048600846006A20F068
:1011E000FF0040F03E0008620846406840F400609E
:1011F0004860242000F01F02012191404209920022
:1012000002F1E022C2F8001100BF7047BE000030BA
:1012100000000740F0B506460F461446354605E087
:1012200028462168FFF7E2FA241D2D1DBD42F7D3A1
:10123000F0BD10B50246002005E0135C0C5C634075
:101240001354431CD8B21028F7DB10BD30380A28DD
:1012500001D2012070470020704701464FF0FF3057
:10126000704730B504460D462046FFF7FDFE204688
:1012700030BD0246002109E0535C481C105C401C54
:10128000834201D000207047481CC1B21029F3DB13
:101290000120F8E710B50446002109E0625C481C13
:1012A000205C401E824201D0002010BD481CC1B20B
:1012B0001029F3DB034801680020FFF757FA0120EB
:1012C000F3E7000030000020B0B000BF00BF00BF57
:1012D00059204849086016208905C1F80001882076
:1012E000C1F80001C006D0F800010028F0D000BF0E
:1012F0004148006820F080003F490860FFF72EFE5B
:101300003E48006840F001003C4908603C480068E5
:101310004FF47A72B0FBF2F1481EB0F1807F00D337
:101320001BE0481E4FF0E022506150170F220028AA
:1013300007DA13071D0E334B00F00F04241F1D5551
:1013400003E013071C0E304B1C5400BF00204FF06D
:10135000E02290610720106100BF4FF04020006C38
:1013600040F440604FF04021086400F0E9F808B113
:1013700000F0D0F8FFF70CFFFFF750FA23490860A0
:1013800023492448FFF766FA23496846FFF7C8F95E
:101390000FE02248007860B1102221496846FFF72B
:1013A00060F900201D4908701D48FFF773FF00B168
:1013B00000E0EEE700BF022000F04CF815E017480F
:1013C000007890B1102216496846FFF74AF9144890
:1013D00000F028F80446202C03D1042000F03AF84D
:1013E00004E000200D49087000BFE8E700BF00F0EE
:1013F00091F80000000100400000044000C00040DF
:101400004000002018ED00E000E400E02C00002087
:1014100034000020300000200200002001000020E5
:101420006C00002010B504462046FFF722FF08B1EB
:10143000202010BD22460648016810310068FFF7E1
:10144000E9FE034800681030014908600120F0E718
:101450002800002001E0044908600349896901F47B
:1014600080010029F7D070470000074010B50446FE
:1014700010A02168FEF700FF11A06168FEF7FCFED6
:1014800012A0A168FEF7F8FE13A0E168FEF7F4FED3
:1014900014A02169FEF7F0FE15A06169FEF7ECFECD
:1014A00016A0A169FEF7E8FE17A0E169FEF7E4FEC9
:1014B00010BD0000723020203D20307825780A00D1
:1014C000723120203D20307825780A0072322020A9
:1014D0003D20307825780A00723320203D20307876
:1014E00025780A00723132203D20307825780A00B4
:1014F0006C7220203D20307825780A00706320200F
:101500003D20307825780A00707372203D203078B5
:1015100025780A0003204FF08041486005480068A4
:1015200020F003000349086003480449086000BF35
:10153000FEE7000000C000400400FA050CED00E0EA
:1015400001200549086000BF00BF00BF00BF02487E
:101550000068C0B270470000684800400146C809F2
:1015600000EBC00000EB400080EA4100C0B27047D1
:101570004FF04070E1EE100A7047000000A000003C
:10158000002001000000020000000400303132336E
:1015900034353637383941424344454640305800A7
:1015A00030313233343536373839616263646566D9
:1015B00040307800D4150000000000206C000000CE
:1015C0007C010000401600006C0000207406000042
:1015D000980100000000247E159621AE02A6CBF7EC
:1015E000158819C34FDC0000000000008D010204C3
:1015F00008102040801B36000000000000000000A2
:1016000000000000000000000000000000000000DA
:1016100000000000001BB7000C000000001BB7001A
:10162000001BB70000800000000000001027000031
:1016300000000000000000000000000000805101D8
:0400000500000141B5
:00000001FF
